:100000000C9441050C9469050C9469050C946905E0
:100010000C9469050C9469050C9469050C946905A8
:100020000C9469050C9469050C9483090C94F509EA
:100030000C9469050C9469050C9469050C94690588
:100040000C9469050C9469050C9469050C94690578
:100050000C9469050C9469050C9469050C94AA0E1E
:100060000C9469050C9469050C9469050C94690558
:100070000C9469050C9469050C9469050C94690548
:100080000C9469050C9469050C9469050C94690538
:100090000C9469050C9469050C9469050C94690528
:1000A0000C9469050C9469050C946905D70DDA0D5B
:1000B000C90DCD0DD10DFB0DFB0DFB0DDE0DE20DC0
:1000C000E60DEC0DF00DFB0DF60D2020202020207C
:1000D000202041626F75740A0A666F722050617544
:1000E0006C0A4C6F7665204461640A0A6874747007
:1000F000733A2F2F676F6F2E676C2F3945654D6EE2
:100100004E002020427574746F6E733A2042207046
:100110006175736573210A2053656C656374696E3C
:1001200067DE20204D6F76696E670A1819206368B4
:10013000616E676573DE201B19181A0A7368617097
:10014000652020202020DE206D6F7665730A1A203E
:1001500073656C6563747320DE201B206174206CF2
:100160006566740A746F20636F726E657220DE209C
:10017000646573656C656374730A412073656C65AF
:1001800063747320DE204120706C616365730A26FE
:10019000206175746F66697473DE207368617065C1
:1001A000002020202020202053636F72696E670A90
:1001B0000A506C6163696E672061207368617065C5
:1001C0000A73636F726573206F6E6520706F696E5E
:1001D0007420666F720A6561636820626C6F636B7E
:1001E00020696E207468650A73686170652C2061EF
:1001F0006E642074656E20706F696E74730A666F2A
:10020000722065616368206C696E650A636C656164
:100210007265642E0020202020202047616D65201B
:10022000706C61790A0A53656C6563742073686148
:1002300070657320746F0A706C616365206F6E2047
:10024000656D7074790A73717561726573206F6E74
:10025000207468652031307831300A67616D65201F
:10026000626F6172642E2046696C6C696E672061F2
:100270000A726F77206F7220636F6C756D6E2063EA
:100280006C656172730A69742E00202048656C7079
:10029000204E617669676174696F6E0A0A50616702
:1002A00065206261636B20616E6420666F727468A2
:1002B0000A77697468201B20616E64201A206173BC
:1002C0000A696E6469636174656420696E2074688C
:1002D000650A757070657220636F726E6572732E39
:1002E00020457869740A7769746820182E20507246
:1002F000657373201A206E6F772E00F0F89C8E873E
:1003000083878E9CF8F00000FEFF030303030307BE
:100310000EFCF80000FEFF0303030303070EFCF8C6
:100320000000FFFF00000000000000FFFF0000FED3
:10033000FF8383838383C7EE7C380000F8FC0E07BD
:10034000030303070EFCF800003F7FE0C08080C07D
:10035000E07F3FFFFF01010101010101FFFF0000FC
:10036000FFFF0C0C0C0C1C3E77E3C100007FFFC0AC
:10037000C0C0C0C0E0703F1F00001F3F70E0C0C0A1
:10038000C0E0703F1F00007FFFC1C1C1C1C1E37762
:100390003E1C00001F3F70E0C0C0C0E0703F1F0067
:1003A0000000000001FFFF01000000000000002429
:1003B0000027002A002D003000D5F08D14A1C8813F
:1003C000CFD9F1AF20000408020110408040102076
:1003D000408040800802040180402010020110800B
:1003E000102040402000000000250028002B002E97
:1003F00000310004040404040304050202020204A0
:1004000003020202020606060606060404020202AF
:1004100004041402130212021502070208020A025F
:100420000A010B020B010902090104010C0106017A
:10043000007F41414141417F7F7F7F7F7F7F7F7F81
:10044000415D5D5D417F7F41414941417F7F7F7FCC
:10045000417F7F7F7F417F7F7F417F7F417F417FE2
:10046000417F7F41417F41417F7F77777777777FFA
:100470007F5D5D5D5D5D7F7F55555555557F7F493E
:10048000494949497F7F7F636B637F7F7F415D552A
:100490005D417F7F556B556B557F2048656C7020A3
:1004A00000201A00526573756D6500204B657973E5
:1004B00020004255472100204E65772020000A0A7F
:1004C0001B20008A021502A1010201CA00486967C7
:1004D000680A0053636F72650A00080B000202028B
:1004E00001000904000001020200000524001001BF
:1004F0000524010101042402060524060001070564
:10050000810310004009040100020A0000000705F1
:1005100002024000000705830240000004030904B2
:1005200041726475696E6F204C4C43004172647572
:10053000696E6F204C656F6E6172646F001201000E
:100540000200000040412336800001010203011235
:10055000010002EF02014041233680000101020345
:100560000100000000003E5B4F5B3E3E6B4F6B3E68
:100570001C3E7C3E1C183C7E3C181C577D571C1CA6
:100580005E7F5E1C00183C1800FFE7C3E7FF001801
:10059000241800FFE7DBE7FF30483A060E262979EA
:1005A0002926407F050507407F05253F5A3CE73C4B
:1005B0005A7F3E1C1C08081C1C3E7F14227F2214FC
:1005C0005F5F005F5F06097F017F006689956A6053
:1005D0006060606094A2FFA29408047E040810206A
:1005E0007E201008082A1C08081C2A08081E101063
:1005F00010100C1E0C1E0C30383E3830060E3E0E0D
:1006000006000000000000005F0000000700070077
:10061000147F147F14242A7F2A122313086462365D
:10062000495620500008070300001C2241000041E9
:10063000221C002A1C7F1C2A08083E080800807023
:100640003000080808080800006060002010080456
:10065000023E5149453E00427F40007249494946A9
:100660002141494D331814127F1027454545393C27
:100670004A49493141211109073649494936464914
:1006800049291E0000140000004034000000081436
:1006900022411414141414004122140802015909AF
:1006A000063E415D594E7C1211127C7F4949493604
:1006B0003E414141227F4141413E7F494949417F7D
:1006C000090909013E414151737F0808087F004133
:1006D0007F41002040413F017F081422417F40407C
:1006E00040407F021C027F7F0408107F3E41414151
:1006F0003E7F090909063E4151215E7F09192946BD
:10070000264949493203017F01033F4040403F1FD2
:100710002040201F3F4038403F6314081463030407
:100720007804036159494D43007F41414102040867
:100730001020004141417F0402010204404040403A
:1007400040000307080020545478407F2844443870
:100750003844444428384444287F385454541800BA
:10076000087E090218A4A49C787F08040478004439
:100770007D40002040403D007F1028440000417F24
:1007800040007C047804787C0804047838444444AD
:1007900038FC1824241818242418FC7C08040408A5
:1007A000485454542404043F44243C4040207C1CBE
:1007B0002040201C3C4030403C44281028444C90B1
:1007C00090907C4464544C4400083641000000770B
:1007D0000000004136080002010204023C262326E4
:1007E0003C1EA1A161123A4040207A385454555918
:1007F0002155557941215454784121555478402050
:10080000545579400C1E5272123955555559395468
:1008100054545939555454580000457C4100024500
:100820007D420001457C40F0292429F0F02825284C
:10083000F07C545545002054547C547C0A097F496F
:1008400032494949323248484832324A4848303AB7
:100850004141217A3A42402078009DA0A07D394450
:100860004444393D4040403D3C24FF2424487E49D7
:1008700043662B2FFC2F2BFF0929F620C0887E0909
:100880000320545479410000447D413048484A32A5
:10089000384040227A007A0A0A727D0D19317D268D
:1008A00029292F28262929292630484D4020380873
:1008B00008080808080808382F10C8ACBA2F1028F4
:1008C00034FA00007B000008142A142222142A148F
:1008D000089500220095AA005500AAAA55AA55AA73
:1008E000000000FF00101010FF00141414FF00108F
:1008F00010FF00FF1010F010F0141414FC0014147A
:10090000F700FF0000FF00FF1414F404FC14141798
:10091000101F10101F101F1414141F00101010F0BF
:10092000000000001F101010101F10101010F01009
:10093000000000FF101010101010101010FF100019
:100940000000FF140000FF00FF00001F1017000050
:10095000FC04F414141710171414F404F40000FF2A
:1009600000F714141414141414F700F714141417C3
:100970001410101F101F141414F4141010F010F0A1
:1009800000001F101F0000001F14000000FC1400D6
:1009900000F010F01010FF10FF141414FF141010CA
:1009A000101F00000000F010FFFFFFFFFFF0F0F04D
:1009B000F0F0FFFFFF0000000000FFFF0F0F0F0F20
:1009C0000F38444438447C2A2A3E147E020206062C
:1009D000027E027E0263554941633844443C044030
:1009E0007E201E2006027E020299A5E7A5991C2AF8
:1009F000492A1C4C7201724C304A4D4D30304878B7
:100A00004830BC625A463D3E494949007E010101D9
:100A10007E2A2A2A2A2A44445F444440514A4440B8
:100A200040444A51400000FF0103E080FF000008FD
:100A3000086B6B083612362436060F090F060000C5
:100A400018180000001010003040FF0101001F01C5
:100A5000011E00191D1712003C3C3C3C0000000028
:100A6000000000000200090F0000030401000C0058
:100A70000000000000000000000000000000000076
:100A80008A1811241FBECFEFDAE0DEBFCDBF27E00A
:100A9000AEE4B2E001C01D92AA3FB207E1F712E056
:100AA000A0E0B1E0E8E9F3E302C005900D92AE34B6
:100AB000B107D9F715E0C1E4D5E004C02197FE01E4
:100AC0000E94E318C034D107C9F70E9437110C9473
:100AD000CA190C940000FC0180910803811103C025
:100AE0008FEF9FEF08959FB7F89482E08093E9001D
:100AF0002091F20030E01216130614F421E030E0E9
:100B00002115310559F0289884E6809307038091D8
:100B1000F10080838091F200882319F09FBFC90102
:100B200008958BE68093E800F9CF80919D078111AD
:100B30000DC082E08093990784E080939A07109219
:100B40009C0710929B0781E080939D0789E997E0BD
:100B50000895CF93DF931F92CDB7DEB76983DC0191
:100B6000ED91FC910280F381E02D41E050E0BE0167
:100B70006F5F7F4F09950F90DF91CF91089583E0CC
:100B80008093E9008091F200882319F08AE3809332
:100B9000E8000895CF93DF931F92CDB7DEB7FC0135
:100BA0008485958597FD05C02FEF3FEF3587248716
:100BB0000BC0CE0101960E946B05019719F4898143
:100BC00090E002C08FEF9FEF0F90DF91CF910895DB
:100BD0000F931F93CF93DF931F92CDB7DEB78C0196
:100BE000FC018485958597FF0EC0CE0101960E9479
:100BF0006B05019719F4298130E002C02FEF3FEF18
:100C0000F80135872487F801848595850F90DF9159
:100C1000CF911F910F910895FC018485958597FDD3
:100C20000BC09FB7F89482E08093E9008091F200B6
:100C30009FBF90E0019608959FB7F89482E080935B
:100C4000E9008091F2009FBF90E008958F929F92FB
:100C5000AF92BF92CF92DF92EF92FF920F931F93CA
:100C6000CF93DF935C016B018A0180910B01882394
:100C700009F45EC080910803882309F459C080916B
:100C8000060380FF05C08091E00082608093E00051
:100C9000E8018AEFF82E93E0E92E2FE3822E3AE363
:100CA000932E209709F43DC08FB7F894E092E900A5
:100CB0009091E80095FF06C09091F200282D291B25
:100CC000922F01C090E08FBF91110AC0FA94FF20CB
:100CD00079F161E070E080E090E00E94700EE1CF79
:100CE000292F30E0C217D3070CF49C2F8FB7F8944C
:100CF000E092E9002091E80025FF11C0292F30E0A3
:100D0000C21BD30BF601915020F041914093F100AA
:100D1000FACFC20ED31E9091E80095FF13C08FBF8B
:100D2000C0CF5D9884E6809398071016110644F0B2
:100D300081E090E0F5019383828380E090E005C03C
:100D4000C80103C09092E800EACFDF91CF911F91D4
:100D50000F91FF90EF90DF90CF90BF90AF909F905A
:100D60008F900895CF92DF92EF92FF920F931F938F
:100D7000CF93DF931F92CDB7DEB7182F062FE42E47
:100D8000862F880F8E5F99830E94FC1083E00E945B
:100D9000FC10F12EC12E9981D92E8C2D8F19801720
:100DA00098F4F601E7FE02C0849101C080810E94A0
:100DB000FC10182F80E00E94FC108123FFEFCF1A57
:100DC000DF0A8111EACF01C081E00F90DF91CF915E
:100DD0001F910F91FF90EF90DF90CF900895DF92D9
:100DE000EF92FF920F931F93CF93DF93D82E8A0138
:100DF0007B01E40EF51EEB01CE15DF0571F0D7FE89
:100E000003C0FE01849101C088810E94FC102196DC
:100E10008111F2CF8FEF9FEF01C0C801DF91CF9119
:100E20001F910F91FF90EF90DF9008950F931F9304
:100E3000CF93DF931F92CDB7DEB782E0898342E480
:100E400050E06AED74E080E80E94EF060E9495058C
:100E5000DC0112960D911C9113970115110569F093
:100E6000D801ED91FC910280F381E02DBE016F5F0E
:100E70007F4FC801099597FF07C089810F90DF91C7
:100E8000CF911F910F910895F80100851185E5CF4D
:100E9000EF92FF920F931F93CF93DF931F92CDB7E3
:100EA000DEB709E017E08CE0E82EFF24F394F801A8
:100EB00061918F01C70169830E9451196981681787
:100EC00019F0C7010E945919FFEFEF1AFF0A8EE7C8
:100ED000E81681E0F80659F789E097E00F90DF9176
:100EE000CF911F910F91FF90EF9008952F923F9215
:100EF0004F925F926F927F928F929F92AF92BF922A
:100F0000CF92DF92EF92FF920F931F93CF93DF93D5
:100F1000CDB7DEB72D970FB6F894DEBF0FBECDBFAD
:100F2000ED82E22EF12C9C012E0D3F1D37FD32C1CA
:100F3000803891050CF02EC19B01200F311D37FD2B
:100F400029C1603471050CF025C1DB0177FF04C0B5
:100F5000AA27BB27A61BB70BA770BB279B0177FF50
:100F600002C0295F3F4F13E0359527951A95E1F7A9
:100F700077FF08C02150310968E070E0FB01EA1BEF
:100F8000FB0BDF01E02FE695E695E695CE2ED12C02
:100F9000077019F0FFEFCF1ADF0AB9017695762FA7
:100FA000662777956795680F791F675F7C4F860185
:100FB000020F131F19870887C12CD12CF8E0AF2E20
:100FC000B12C85010A1B1B0B1F830E830885198515
:100FD0002017310709F4DEC02830310509F4DAC0E2
:100FE0002F3F1FEF31070CF4CAC08B0100581F4F71
:100FF0001D870C874B013B012B011C011C830B83BC
:101000001A8309831B861A860A851B850E151F0500
:101010000CF0B5C010E82116310409F4B0C037FC5B
:1010200089C02F3FEFEF3E0709F4B0C00A851B854A
:101030000C0D1D1DFD81F13079F4F801E40FF51F51
:10104000E491F0E08F010A2E01C0000F0A94EAF744
:10105000F301B0800B2925C0FD81F11114C0F80106
:10106000E40FF51FE491F0E00A2E02C0EE0FFF1F1F
:101070000A94E2F78F0100951095F401A080B12C3D
:101080000A211B210EC0F801E40FF51FE491F0E0E6
:101090008F010A2E01C0000F0A94EAF7F201B08016
:1010A0000B250083109709F445C02730310509F45A
:1010B00041C00A851B850C0D1D1DFD81F13089F491
:1010C000F801E40FF51FE4910E2F10E00E8002C02E
:1010D000159507950A94E2F7EC85FD85B0800B29FC
:1010E00028C0FD81F11115C0F801E40FF51FE4914E
:1010F0000E2F10E00E8002C0159507950A94E2F7B6
:1011000000951095E981FA81A080B12C0A211B215C
:1011100010C0F801E40FF51FE4910E2F10E00E80CF
:1011200002C0159507950A94E2F7EB81FC81B08027
:101130000B2500830A851B850F5F1F4F1B870A87BE
:101140000C851D850F5F1F4F1D870C8709811A8134
:101150000F5F1F4F1A8309830B811C810F5F1F4F85
:101160001C830B831FEF211A310AEFEF4E1A5E0A20
:10117000FFEF6F1A7F0A0FEF801A900A45CF2F5F9B
:101180003F4F60587F4FCE0CDF1C20CF109709F0E7
:1011900090CFD0CF2D960FB6F894DEBF0FBECDBF47
:1011A000DF91CF911F910F91FF90EF90DF90CF9043
:1011B000BF90AF909F908F907F906F905F904F9077
:1011C0003F902F90089520E089E093E0B22FB11175
:1011D000BFEFFC010024B193B193B193B193039499
:1011E000D1F70895009769F0FC0101900020E9F71C
:1011F0003197AF01481B590BBC018BE797E00C946A
:10120000320C80E090E008950F931F93CF93DF930B
:101210008C01C0E0D0E0F801EC0FFD1F6491662363
:1012200071F0E0917B07F0917C070190F081E02D57
:101230008BE797E00995892B11F02196ECCFCE0131
:10124000DF91CF911F910F910895809109038EBD79
:10125000EAE0F3E081910DB407FEFDCF8EBD87E09B
:10126000E930F807B9F70DB407FEFDCF08958F9266
:101270009F92AF92BF920F931F93CF93DF93CDB7FF
:10128000DEB7A1970FB6F894DEBF0FBECDBF19A28F
:10129000423008F44AE08E010F5D1F4F842E912CDE
:1012A000A12CB12CA50194010E949919E62FB90136
:1012B000CA0101501109EA3014F4E05D01C0E95C93
:1012C000D801EC93232B242B252B61F7C8010E9416
:1012D000F208A1960FB6F894DEBF0FBECDBFDF9126
:1012E000CF911F910F91BF90AF909F908F900895D5
:1012F00020918107282329F490918007982381E089
:1013000009F480E008951F920F920FB60F921124F6
:101310008F939F938091E1009091E100937F909350
:10132000E10083FF0FC01092E90091E09093EB0081
:101330001092EC0092E39093ED001092080398E075
:101340009093F00082FF20C093E09093E900909189
:10135000F200992319F09AE39093E800909198078E
:10136000992339F090919807915090939807992379
:1013700089F190910703992339F0909107039150D7
:1013800090930703992341F184FF10C08091E200FC
:101390008E7E81608093E2008091E1008F7E809359
:1013A000E100809106038E7E806111C080FF16C02F
:1013B0008091E2008E7E80618093E2008091E10066
:1013C0008E7E8093E100809106038E7E8160809303
:1013D000060304C05D9ACDCF289AD6CF9F918F91F6
:1013E0000F900FBE0F901F9018951F920F920FB67F
:1013F0000F921124CF92DF92EF92FF920F931F93DF
:101400002F933F934F935F936F937F938F939F930C
:10141000AF93BF93EF93FF93CF93DF93CDB7DEB737
:101420006C97DEBFCDBF1092E9008091E80083FF8A
:10143000FAC168E0CE0145960E942A1182EF80939E
:10144000E8008D8987FF05C09091E80090FFFCCFF0
:1014500003C09EEF9093E800982F907609F0C6C0E5
:101460009E892F89188D91110CC0803829F48091A4
:1014700005038093F10002C01092F1001092F10078
:1014800047C1422F50E0512B913051F4811140C19E
:101490004130510509F03CC1809105038D7F0BC09F
:1014A000933061F4811134C14130510509F030C1EC
:1014B000809105038260809305032AC1953041F431
:1014C0008091E80080FFFCCF20682093E30020C1DA
:1014D000963009F05FC0EB8CFC8C1092E900109202
:1014E000030310920203123091F51092010310923F
:1014F00000030E94160799E0BE016F5F7F4FDB017A
:10150000E92F1D92EA95E9F799831A8391E09E836A
:1015100090EA98879AEF998720910203309103030C
:10152000275F3F4F3C832B838D831092E9001092FD
:10153000030310920203F0920103E092000349E0DA
:1015400050E080E00E94EF060E941607E1C0F09292
:101550000103E09200030E949505DC011296ED90D4
:10156000FC901397E114F10409F4C0C0D701ED9188
:10157000FC910480F581E02DBE016B5E7F4FC701B9
:101580000995009719F00CF0C3C0C6C0F701E084BC
:10159000F184E8CF973009F4BFC0983021F481E09E
:1015A0008093F100B5C0993009F0B2C0837009F0A2
:1015B000B3C0EFEFF1E081E021E036E390819923C1
:1015C00061F08093E9002093EB0091919093EC00FF
:1015D0003093ED008F5F873089F78EE78093EA00C4
:1015E0001092EA008F898093080392C08B8D9C8DA6
:1015F0001092E900109203031092020390930103EA
:1016000080930003898D811156C08E899D89913AFE
:1016100059F4813209F080C047E050E064E071E0A5
:1016200080E00E94EF0674C0913209F075C08332E9
:1016300089F4888D90E0982F88272F89822BA0E04D
:10164000B0E08093000190930101A0930201B09358
:1016500003015EC0803269F48091E80082FFFCCF14
:1016600067E084E091E00E942A118BEF8093E8000C
:1016700006C0823209F04CC08F8980930B018091A3
:101680000403882319F0EEEFFAE002C0E0E0F8E08E
:101690008091040190910501A0910601B09107018C
:1016A000803B9440A105B10509F088C080910B01F1
:1016B00080FFA0C083C00E949505DC0112960D91A9
:1016C0001C9113970115110539F1D801ED91FC9189
:1016D0000190F081E02DBE016B5E7F4FC80109953E
:1016E000811116C0F80100851185ECCF1130C1F0D1
:1016F000133091F48F89882309F455C08230E9F4BE
:1017000040E860E18CE295E00E94B206882321F077
:101710008EEF8093E80087C081E28093EB0083C066
:101720008B8D9C8D089711F41093970780919707E4
:10173000811136C06DE375E038C0813029F440E88E
:101740006BE080E295E0E0CF833031F70E949505B1
:10175000DC011296ED90FC9013978E010F5F1F4FE6
:101760006801E114F10479F0D701ED91FC91068054
:10177000F781E02DB801C7010995080F111DF70188
:10178000E084F184EECFD8011C92F6010190002094
:10179000E9F73197BF016C197D0940E0C601B4CF6C
:1017A0006FE475E002C06CE175E06115710509F444
:1017B000B3CFFB01449150E080E833CF0FB6F894EB
:1017C000A89580916000886180936000109260000D
:1017D0000FBEA895EE3F2AE0F20739F08091FE0A8D
:1017E0009091FF0A9183808393CF1092FF0A109209
:1017F000FE0A8ECFEE3F8AE0F80731F080819181BA
:101800009093FF0A8093FE0A87E797E7918380838E
:101810009BE088E10FB6F894A895809360000FBE16
:101820009093600075CF6C960FB6F894DEBF0FBE34
:10183000CDBFDF91CF91FF91EF91BF91AF919F917C
:101840008F917F916F915F914F913F912F911F9158
:101850000F91FF90EF90DF90CF900F900FBE0F9001
:101860001F901895CF92DF92EF92FF920F931F93E4
:10187000CF93DF936C017A018B01C0E0D0E0CE15ED
:10188000DF0589F0D8016D918D01D601ED91FC91B4
:101890000190F081E02DC6010995892B11F47E019C
:1018A00002C02196ECCFC701DF91CF911F910F911C
:1018B000FF90EF90DF90CF9008952F923F924F923C
:1018C0005F926F927F928F929F92AF92BF92CF92D0
:1018D000DF92EF92FF920F931F93CF93DF9300D08D
:1018E00000D000D0CDB7DEB7DC016A30A9F45A963B
:1018F0002C915A9756968D919C91579708E0209F6E
:10190000800D911D112457969C938E935697559652
:101910001C921E925497D1C06D3009F4CEC05A96D5
:10192000BC905A9759962C90599758963C90589736
:1019300056962D913C9157973C832B8354968D91CD
:101940009C91559780389105C4F05A962C915A97DE
:10195000422F50E054968D919C91559736E0239FED
:10196000800D911D112455969C938E9354975B96F0
:101970002C915B9721118EC0A0C00B811C8100347B
:1019800011051CF79C0115E0B19E200D311D11249D
:1019900012161306D4F68B2C912C2B813C8148E037
:1019A000B49E200D311D11241216130674F6E5E0C5
:1019B0006E9F2001112460E070E06530710539F000
:1019C000FB01E40DF51DEF59FA4FA49001C0A12CC5
:1019D000EB80FC8008E0702EA0FC02C0622C01C0ED
:1019E000632C611009C0231007C0A6947A94E80CF8
:1019F000F91C7110F1CF45C09C01422F481B4B15BB
:101A0000A0F7A701E42FF42FFE19FB15B8F5203835
:101A1000310588F54034510570F5E695E695E69573
:101A2000CE2ED12C8A01077011271A830983F60163
:101A3000F695FE2FEE27F795E795E20FF31F8F013E
:101A4000075F1C4F1E830D83E1E0F0E0098002C0B8
:101A5000EE0FFF1F0A94E2F7FA83E983662029F06C
:101A6000F801D080C980CD2805C0CE2EC094F801E1
:101A7000D080CD20C0824F5F5F4FC4CF2F5F3F4FDC
:101A8000BCCF6F5F7F4F880D991D6630710509F0DF
:101A900094CF5BCF6AEF64039001659F300D1124F2
:101AA00020583F4F2817390744F4CD01ED91FC91A0
:101AB0000190F081E02D6AE0099581E090E02696A2
:101AC0000FB6F894DEBF0FBECDBFDF91CF911F914F
:101AD0000F91FF90EF90DF90CF90BF90AF909F90CD
:101AE0008F907F906F905F904F903F902F900895D0
:101AF0000E94E918CF92DF92EF92FF920F931F930B
:101B0000CF93C0E087E1C82ED12CE12CF12C02E16B
:101B100017E00E943C19A70196010E946719962FB1
:101B2000EC2FF0E0E75FF84F6187E2E1F7E08E2FFE
:101B3000801B8C1720F481919813F9CFC150CF5F8F
:101B4000C33038F310925A02CF911F910F91FF903A
:101B5000EF90DF90CF900895362F90E0FC01EF5981
:101B6000F54F4491FC01EA53FC4F2491FC01ED50E8
:101B7000FC4F8491882309F451C04423E1F150E0E3
:101B8000FA013197EF30F105B0F5EA5AFF4F0C94A6
:101B9000E318909180009F7707C0909180009F7D0F
:101BA00003C090918000977F9093800024C094B5EB
:101BB0009F7702C094B59F7D94BD1DC09091900009
:101BC0009F7707C0909190009F7D03C090919000F7
:101BD000977F909390000FC09091C0009F7703C0B3
:101BE0009091C0009F7D9093C00005C09091C2006D
:101BF000977F9093C200E82FF0E0EE0FFF1FEB51AC
:101C0000FC4FA591B4918FB7F894EC91311103C0BA
:101C100020952E2301C02E2B2C938FBF0895CF9398
:101C2000DF9390E0FC01EA53FC4F2491FC01ED505E
:101C3000FC4F8491882361F190E0880F991FFC018B
:101C4000E555FC4FC591D491FC01EB51FC4FA5919A
:101C5000B491611109C09FB7F894888120958223BF
:101C60008883EC912E230BC0623061F49FB7F89407
:101C70003881822F809583238883EC912E2B2C939F
:101C80009FBF06C08FB7F894E8812E2B28838FBFA3
:101C9000DF91CF9108953FB7F8948091F607909126
:101CA000F707A091F807B091F90726B5A89B05C0E2
:101CB0002F3F19F00196A11DB11D3FBFBA2FA92FCB
:101CC000982F8827820F911DA11DB11DBC01CD0148
:101CD00042E0660F771F881F991F4A95D1F7089534
:101CE0008F929F92AF92BF92CF92DF92EF92FF922C
:101CF0006B017C010E944B0E4B015C01C114D104AD
:101D0000E104F104F1F00E944B0EDC01CB018819D3
:101D10009909AA09BB09883E9340A105B10570F352
:101D200021E0C21AD108E108F10888EE880E83E0AC
:101D3000981EA11CB11CC114D104E104F10419F7CF
:101D4000DDCFFF90EF90DF90CF90BF90AF909F904E
:101D50008F9008951F920F920FB60F9211242F9318
:101D60003F938F939F93AF93BF9380915402909131
:101D70005502A0915602B09157023091F50723E029
:101D8000230F2D3720F40196A11DB11D05C026E8B3
:101D9000230F0296A11DB11D2093F50780935402D5
:101DA00090935502A0935602B09357028091F60784
:101DB0009091F707A091F807B091F9070196A11D3E
:101DC000B11D8093F6079093F707A093F807B0939F
:101DD000F907BF91AF919F918F913F912F910F90F4
:101DE0000FBE0F901F9018958FB12CB193B130E0BA
:101DF0002095309520743327A90123E05595479508
:101E00002A95E1F7292F30E020953095207133276E
:101E10003595279535952795242B8095807F822BA6
:101E200008951F93CF93DF931F92CDB7DEB7162F80
:101E3000682F8AE049830E94AC0D612F8BE00E94DD
:101E4000AC0D4981642F89E00F90DF91CF911F91F4
:101E50000C94AC0DE0915202F0915302908180916C
:101E60005102892B8083E0914F02F09150029081C2
:101E700080914E02809589238083E0915202F091F7
:101E80005302908180915102809589238083089527
:101E9000E0914F02F0915002908180914E02892B87
:101EA0008083E0915202F09153029081809151021F
:101EB00080958923808308958EBD00000DB407FEB0
:101EC000FDCF8EB508950F931F93CF93DF931F928D
:101ED000CDB7DEB7182F062F61E089E049830E9455
:101EE000AC0D68EC70E080E090E00E94700E60E065
:101EF000802F0E94AC0D82E090E00E945119498130
:101F0000481729F0642F82E090E00E94591964EF8D
:101F100071E080E090E00E94700E61E0802F0E94EE
:101F2000AC0D0E94F40E81238117D9F30F90DF913D
:101F3000CF911F910F9108952F923F924F925F92F0
:101F40006F927F928F929F92AF92BF92CF92DF92C9
:101F5000EF92FF920F931F93CF93DF9300D01F92C6
:101F6000CDB7DEB72C01362E342F10E0A42EB12CC5
:101F7000862E912CD20111968C91181708F05AC018
:101F80006501B6E01B9FC00CD11C1124632E712C7F
:101F9000232CF12CF2018081F81608F048C04F2D57
:101FA00050E05B834A83D2011296ED91FC91139726
:101FB000E40FF51F189FE00DF11D11248081882387
:101FC00091F1E12C07E027E048E354E0B601C401B9
:101FD000B6E0FB9E800D911D112439830E94760787
:101FE000F2018081428153816A817B81460F571FB4
:101FF000189F400D511D1124DA018C9190E06FE083
:1020000070E00E94BB1827E0289FA001299F500D77
:1020100011244F5C5B4FEE24E394B301822D90E0DA
:102020000E9476073981F394B6E02B0EB3CF1F5F81
:102030003A5FA0CF0F900F900F90DF91CF911F913B
:102040000F91FF90EF90DF90CF90BF90AF909F9057
:102050008F907F906F905F904F903F902F9008955A
:1020600084E68093110710920D0710920E071092CC
:102070000F071092100729E037E04AE080E090E077
:10208000F901E80FF91F168601968A309105C1F70C
:102090004150265F3F4F4111F1CF0E947A0D83E0FE
:1020A00090E090935902809358020895809112070E
:1020B00087FF0AC08091130787FF08C0809114072B
:1020C00087FD08C082E003C080E001C081E080930A
:1020D0005A0208950C947A0DDF92EF92FF920F93BB
:1020E0001F93CF93DF93DC018C91082F10E09801B0
:1020F000260F311D2B303105BCF51196DC90119760
:1021000050E09A012D0D311D2B3031056CF59AE010
:10211000699F400D511D112460E070E090E09D1515
:1021200029F17A01E90EF11C9B01E0E0F0E0C22FF9
:10213000C61BC817A8F41296CD91DC911397C20F55
:10214000D31FC881CC2341F0EF01CE0DDF1DC75F47
:10215000D84FCE85C11108C03A962F5F3F4FE7CFC9
:102160009F5F600F711FDBCF80E001C081E0DF91D6
:10217000CF911F910F91FF90EF90DF900895EF9214
:10218000FF920F931F93CF93DF938C01109215074B
:102190008AE0E82EF12CC09115072C2F30E0F801D1
:1021A0008081A701481B510942175307ECF0109298
:1021B0001607D09116072D2F30E0F8018181A70175
:1021C000481B5109421753075CF04D2F6C2FC80173
:1021D0000E946C10811109C0DF5FD0931607E9CF10
:1021E000CF5FC0931507D7CF80E0DF91CF911F91CC
:1021F0000F91FF90EF9008954091020350910303D7
:10220000209100033091010342175307B4F49091D9
:10221000E8009570E1F39091E80092FD19C0809379
:10222000F100809102039091030301968F73992727
:10223000892B19F48EEF8093E8008091020390912E
:1022400003030196909303038093020381E00895B2
:1022500080E00895615030F02091F100FC0120836E
:102260000196F8CF289884E6809307030895CF93CA
:10227000DF9300D000D0CDB7DEB7789484B582600C
:1022800084BD84B5816084BD85B5826085BD85B51A
:10229000816085BD80916E00816080936E00109298
:1022A0008100809181008260809381008091810013
:1022B00081608093810080918000816080938000A4
:1022C0008091910082608093910080919100816063
:1022D0008093910080919000816080939000809124
:1022E000C10084608093C1008091C10082608093AE
:1022F000C1008091C10081608093C1008091C300C2
:1023000081608093C3008091C00082608093C00090
:102310008091C20081608093C20080917A008460C5
:1023200080937A0080917A00826080937A00809115
:102330007A00816080937A0080917A00806880932F
:102340007A00109208031092050310920603809100
:10235000D70081608093D70080EA8093D80089B548
:10236000806189BD89B5826089BD09B400FEFDCF59
:1023700061E070E080E090E00E94700E8091D800F3
:102380008F7C80618093D8008091E000807F809373
:10239000E0008091E1008E7E8093E1008DE08093EB
:1023A000E200559A209AEEEFFFE7859194918B3FDA
:1023B0009C4D19F481E0809304031FB7F894809139
:1023C0005C02811127C0E4E0F4E08491E7EDF3E0E2
:1023D0009491E82FF0E0EE0FFF1FE555FC4FA5911B
:1023E000B491EC91E92321F461E081E10E94AC0D0C
:1023F00061E081E10E940F0E8CB580618CBD8CB5CF
:1024000080648CBD61E08FE00E940F0E61E080E18E
:102410000E940F0E80915C028F5F80935C021FBF51
:1024200002E114E0F80184910E5F1F4F3196649130
:10243000882319F00E940F0EF5CF61E086E00E941C
:10244000AC0D61E070E080E090E00E94700E60E012
:1024500086E00E94AC0D6AE070E080E090E00E94AF
:10246000700E61E086E00E94AC0DEFEFF3E0E491C6
:10247000F0E0EE0FFF1FEB51FC4F8591949190938C
:10248000530280935202E2EDF3E0E491E0935102B3
:10249000E7EFF3E0E491F0E0EE0FFF1FEB51FC4FAC
:1024A000859194919093500280934F02EAECF3E06F
:1024B000E491E0934E028CB58C7F8CBD8DB581602C
:1024C0008DBD0E942A0F19EBC12E13E0D12E1DE005
:1024D0001C0DF60184910E945C0FFFEFCF1ADF0AFA
:1024E0001C11F7CF0E94480F809164008160809397
:1024F0006400809164008260809364008091640035
:10250000806880936400809164008064809364009C
:102510008091650081608093650000E014E080E0B8
:102520000E945C0F01501109D1F70E94F40E87FF41
:1025300044C00E942A0F85EA0E945C0F0E94480F47
:1025400040E060E080E00E94110F0E94F40E84FDE4
:102550000BC083B7817F83BF83B7816083BF8895BA
:1025600083B78E7F83BFF1CF41E061E081E00E94BD
:10257000110F0E942A0F84EA0E945C0F0E94480FEC
:102580001CC060E089E00E94AC0D0E94F40E8478CB
:10259000843821F44FEF6BE00E94630F0E94F40E29
:1025A0008471843121F440E06AE00E94630F68EC9A
:1025B00070E080E090E00E94700E0E94F40E82FDB8
:1025C000E0CF61E089E00E94AC0D60E08AE00E940B
:1025D000AC0DFEEECF2EDD24DA941C2D1C3F19F439
:1025E00041E060E004C0183129F440E061E081E09E
:1025F0000E94110F0E94E308EE24E39400E128E515
:102600004BEF52E0B60184E190E00E9476070E9411
:1026100025096BE170E080E090E00E94700E103FB1
:1026200031F46AEF70E080E090E00E94700E0FEFEE
:10263000C01AD00A29E1C216D10479F66EEE72E012
:1026400080E090E00E94700E61E089E00E94AC0D95
:1026500082E090E00E945119882359F061E085E002
:102660000E940F0E61E08DE00E940F0E81E08093CA
:102670005B028AE091E00E9451198A3009F032C26F
:102680008BE091E00E9451198A3009F02BC209E0D9
:1026900017E0ECE0CE2EDD24D394C6010E94511940
:1026A000D8018D938D01BFEFCB1ADB0AEEE7CE1672
:1026B000E1E0DE0691F782E080935A028DE192E03C
:1026C0009093FF028093FE028091120787FF08C05B
:1026D0008091130787FF04C08091140787FD09C00C
:1026E00081E080935A0288E292E09093FF02809307
:1026F000FE02109259021092580289E097E0FAE027
:10270000F80FF98382E197E013E0180FE0915A0285
:10271000F0E0E75FF84F918564E0960290011124A4
:102720003C832B832E553E4F69010E94E308109293
:102730009207109291071092900710928F0759E01C
:10274000452E57E0552E62E0862E912C77E0372EED
:10275000A12CB12C4EE3642E712CF201EA0DFB1D6D
:10276000868590E06FE070E00E94BB18389EA00163
:10277000399E500D11244F5C5B4FEE24E39407E02B
:1027800027E0B401C3010E9476077AE0A70EB11CCE
:1027900086E0680E711C94E6A916B104F1F6AFEF5D
:1027A0004A1A5A0AB6E08B0E911CEEE38E1691047B
:1027B00079F683ED94E00E94040960910D07709111
:1027C0000E0780910F07909110074AE00E94370989
:1027D0001092900710928F078CE290E090939207EE
:1027E000809391078DEC94E00E94040960910907A1
:1027F00070910A0780910B0790910C074AE00E94A4
:10280000370980915802909159028130910509F45D
:1028100045C034F4892B09F0C8C040E050E007C03F
:1028200082309105C9F1059709F473C0BEC080E0FC
:1028300090E0282F269526952695FA0100E8209FFE
:10284000E00DF11D1124E75FFC4F9C012770332739
:1028500061E070E002C0660F771F2A95E2F79B01E6
:10286000209530812323208301968034910509F738
:102870004F5F5F4F4D335105D1F610929007109284
:102880008F0782E190E0909392078093910781E314
:1028900092E00E94F20884C040E001C041E08091D3
:1028A000FE029091FF021092900710928F0722E192
:1028B00030E030939207209391074A830E94F208F8
:1028C0008EEB94E00E94040980915A024A81882389
:1028D00049F0813051F0833059F0823061F082EB61
:1028E00094E00BC08AE994E008C084EA94E005C053
:1028F0008BEA94E002C087EB94E04A830E940409CB
:1029000081EA94E00E94040921E001E0A12C4A81BF
:10291000B5C00E94E308109292071092910710929E
:10292000900710928F07E0915A02F0E0EE0FFF1F20
:10293000ED53FB4F659174918DE592E00E944A1929
:102940001092900710928F071092920710929107A1
:102950008DE592E00E94F20880915A02882369F086
:102960001092900710928F07109292071092910781
:102970006BE18BE797E00E945D0C80915A028430F6
:1029800078F488E790E09093900780938F071092F7
:102990009207109291076AE18BE797E00E945D0C25
:1029A00041E021E001E0A12C69C092E1A92E97E06D
:1029B000B92E22E1822E912C00E086E090E09093E7
:1029C000900780938F079092920780929107809151
:1029D0005A02081731F0D5018C9187FD04C06DE2D1
:1029E00003C06BE201C060E28BE797E00E945D0CE0
:1029F0000F5FB6E08B0E911CEFEFAE1ABE0A0330EC
:102A0000E1F6EB81FC81EE55FE4F8181482F440FAA
:102A1000480F4195455E8081682F660F680F61956C
:102A2000605EC6010E949C0F8091580290915902ED
:102A3000049709F0B5CF90901607B0901507492D6F
:102A40006B2DC6010E946C10A82E811103C021E0DD
:102A500000E002C020E001E0492D440F490D440F81
:102A60004E5F6B2D660F6B0D962F990F6EE3690FFE
:102A7000C6012A830E949C0F41E02A81622F802F89
:102A80000E94110F0E942509809180078093810781
:102A90000E94F40E8093800784E00E9478092091C0
:102AA0005802309159028823B1F1A90143505109CC
:102AB0004230510580F588E292E09093FF028093C6
:102AC000FE0261E070E0709359026093580281E069
:102AD00080935A0280E090E0892B09F417CE0E947F
:102AE000000010CE0E9430101092090710920A07C1
:102AF00010920B0710920C0710925A020E9448077E
:102B00006AE08AE091E00E9459196AE08BE091E066
:102B10000E945919EECD2230310541F48FEF809398
:102B2000120780931307809314070CC023303105DC
:102B30000CF0F8C02115310509F457C021303105DA
:102B400009F0BCC088E00E947809882329F18091AF
:102B50005A02813081F0C0F0823059F08330E1F4C4
:102B600025E030E0309359022093580280935A02B6
:102B700013C00E94301083E090E09093590280933C
:102B800058020E94561008C085E090E090935902C8
:102B90008093580210925A02C090FE02D090FF0219
:102BA00080E20E947809882341F080915A028823AC
:102BB00011F081500DC083E03AC280E40E94780990
:102BC000882341F080915A0290E001968370992702
:102BD00080935A023DE1C31632E0D30609F06EC07D
:102BE00080915A028130E1F269C088E00E94780940
:102BF000882309F463C0809164008E7F8093640011
:102C000087EC80937C0080E280937B0062E070E040
:102C100080E090E00E94700E80917A008064809342
:102C20007A0080917A0086FDFCCFA0907800B09069
:102C30007900A094B0948EE580937C0062E070E00F
:102C400080E090E00E94700E80917A008064809312
:102C50007A0080917A0086FDFCCFC0907800D090F9
:102C600079000E944B0E9B01AC0120953095409558
:102C70005095C094D094CA9CD001CB9CB00DDA9CE6
:102C8000B00D11240E9486194B015C010E944B0E6D
:102C9000680D791D8A1D9B1D6115710581059105C2
:102CA00011F00E944119809164008160809364005A
:102CB00021E030E030935902209358020E944807E7
:102CC0008091580290915902049709F003CF8FB771
:102CD000F8948090540290905502A0905602B090C3
:102CE00057028FBF80911107880E911CA11CB11C47
:102CF0002FB7F8948091540290915502A0915602FA
:102D0000B09157022FBF88159905AA05BB0508F099
:102D1000E1CE0E94F40E83FDDDCE0E94F40E82FD12
:102D2000D9CEE6CF2430310509F018C188E00E94E1
:102D30007809882309F497C1AA2009F494C1A090C6
:102D40005A028A2D90E0DC01A75FB84F5D01199609
:102D5000EC91B4E0EB02F0011124EE55FE4FC1807E
:102D600080901507209016070AE0809E40011124EC
:102D700080E090E0312C7F0122E0E20EF11C8C1506
:102D800080F080910D0790910E07A0910F07B091F0
:102D9000100749E057E0BA01812C912CFF24FA94E6
:102DA0005CC0D080D89E9001D99E300D11243C8308
:102DB0002B83BC01620D731D680D791D40E050E04E
:102DC000A22FBB81AB1BAD1558F5D7016D907C9040
:102DD000D301A20FB31F7C907720E9F040900D073C
:102DE00050900E0760900F07709010070FEF401A79
:102DF000500A600A700A40920D0750920E076092C6
:102E00000F07709210077C90DA01A60FB71FA75F1B
:102E1000B84F1E967C922F5F3F4F465F5F4FD0CFDB
:102E20000196ADCF6A01C20ED31EF60106850111CF
:102E300017C020E030E06B01C20ED31EF6010685FC
:102E4000011141C0FFEF8F1A9F0A665F7F4F4F5FEE
:102E50005F4F0AE080169104C1F020E030E0E2CF3D
:102E6000265F3F4F24363105E9F60A96A11DB11DB4
:102E700020E030E06A01C20ED31EF601F686265F1E
:102E80003F4F24363105B1F7D4CF80930D0790938F
:102E90000E07A0930F07B0931007409109075091B8
:102EA0000A0760910B0770910C07481759076A07CA
:102EB0007B07F8F48093090790930A07A0930B0708
:102EC000B0930C0716C02F5F3F4F2A30310509F031
:102ED000B2CF0A96A11DB11D20E030E06B01C20EF9
:102EE000D31EF601F6862F5F3F4F2A303105B1F72A
:102EF000A9CF29E037E080E090E0F901E80FF91F61
:102F000046854F3F09F416860A9684369105A9F73F
:102F10002F5F3F4FF981F213EECF8FEFD501199656
:102F20008C930E94561082E1C82E87E0D82EF601BD
:102F300081916F0187FDA1C0F4E08F02C0011124CF
:102F40008E559E4F0E94BF10882309F496C083E0DF
:102F500090E09093590280935802B0CE243031050E
:102F60000CF04CC080E80E947809882379F08091A9
:102F70005A02882311F0815001C082E0E82FF0E06E
:102F8000E75FF84F918597FDF4CF51C080E10E9433
:102F900078098823A9F090915A0223E030E0892F24
:102FA00090E00196B9010E94CF18AC01982FFA0168
:102FB000E75FF84F818587FDF2CF40935A027ECEBE
:102FC00080E40E947809882329F010921607109255
:102FD000150711C088E00E947809882309F46ECE95
:102FE00041E061E080E00E94110FC6010E94BF1025
:102FF000882309F463CE84E090E0ABCF253031051F
:1030000009F05CCE80E20E947809882331F080913B
:103010005A02882311F081500AC080E40E94780986
:10302000882341F080915A02843020F48F5F80938E
:103030005A0244CE80E80E947809882309F43ECEE3
:103040008091FE029091FF028852924019F082E036
:1030500090E002C081E090E0909359028093580282
:1030600010925A022BCE0E94F40E87FF18C0809156
:1030700016078823A1F0815027C01C1158CF22E0E9
:1030800030E0309359022093580282E080935A0234
:103090008DE192E09093FF028093FE020FCE0E949A
:1030A000F40E84FF14C080911607482F50E0EB8186
:1030B000FC81EE55FE4F91812AE030E0291B310959
:1030C0004217530724F48F5F80931607F7CD0E94B1
:1030D000F40E86FF10C080911507482F50E0EB8159
:1030E000FC81EE55FE4F90812AE030E0291B31092A
:1030F000421753075CF00E94F40E85FFDFCD8091EC
:103100001507882309F423CF815001C08F5F809376
:103110001507D4CDE5EAF7E01382128288EE93E03A
:10312000A0E0B0E084839583A683B78389E092E032
:10313000918380838FEF9FEF95878487EBE7F7E09C
:10314000138212821582168280E18187108617828F
:1031500016861786108A118A128A89E192E0918375
:103160008083158A148A178A168A81E0808F118ECF
:10317000828F138E0895AA1BBB1B51E107C0AA1FA3
:10318000BB1FA617B70710F0A61BB70B881F991F08
:103190005A95A9F780959095BC01CD01089597FBAC
:1031A000072E16F4009407D077FD09D00E94BB18B3
:1031B00007FC05D03EF4909581959F4F089570953A
:1031C00061957F4F0895EE0FFF1F0590F491E02D5C
:1031D000099481E090E0F8940C94CA198F929F9220
:1031E000AF92BF92CF92DF92EF92FF92CF93DF9395
:1031F000EC01688179818A819B8161157105810566
:10320000910521F464E279ED8BE597E02DE133EF50
:1032100041E050E00E94671949015A019B01AC014D
:10322000A7EAB1E40E9486196B017C01ACEEB4EF11
:10323000A50194010E949419DC01CB018C0D9D1D08
:10324000AE1DBF1DB7FF03C00197A109B048888319
:103250009983AA83BB83BC01CD019F77DF91CF9176
:10326000FF90EF90DF90CF90BF90AF909F908F90A6
:1032700008950E94EE1808958CE091E00E94EE18E7
:10328000089560930C0170930D0180930E0190934B
:103290000F010895FB01DC0105900D920020E1F77C
:1032A0000895F999FECF92BD81BDF89A992780B50E
:1032B0000895262FF999FECF1FBA92BD81BD20BD7A
:1032C0000FB6F894FA9AF99A0FBE01960895052E52
:1032D00097FB1EF400940E947E1957FD07D00E94B0
:1032E000991907FC03D04EF40C947E195095409523
:1032F000309521953F4F4F4F5F4F089590958095A2
:10330000709561957F4F8F4F9F4F08950E94BB1915
:10331000A59F900DB49F900DA49F800D911D112429
:103320000895B7FF0C9486190E948619821B930B8F
:103330000895A1E21A2EAA1BBB1BFD010DC0AA1FF6
:10334000BB1FEE1FFF1FA217B307E407F50720F00E
:10335000A21BB30BE40BF50B661F771F881F991F89
:103360001A9469F760957095809590959B01AC01D2
:10337000BD01CF010895A29FB001B39FC001A39FDB
:10338000700D811D1124911DB29F700D811D11249E
:08339000911D0895F894FFCF90
:10339800FFFFFFFF00E10000000000000100000047
:1033A8000606060707000A0A0A0B0B000E0E0E0E89
:1033B80000000E0E0E00000E0E00000E0E0E000095
:1033C8000E0E0E0E0E0E000E000E0E0E0E000E004D
:1033D8000E000E000E0E000E000E0E0E0404040465
:1033E8000400080808080800030505050509090977
:1033F8000902020202000D0D0D0D000D0D0D0D004C
:103408000D0D0D0D000101010101010101010C0C5F
:103418000C0C00000C00000C0C0C00000C00000C44
:1034280000000C00000C0C0C0C0C00000C00000C34
:103438000C0C030375010202610101015801010529
:103448004C01010459010103100101021301050196
:10345800520104015D010301160102011901030370
:103468007E0103038701030390010303990103020B
:103478001C01030222010203400102034601020269
:1034880065010202690102026D010202710100C1B7
:10349800808100000000000000A90526060C06CA6D
:1034A80005E805BF05000000005D0C320C47616DA2
:1034B80065206F7665722100202050617573656400
:1034C80000313031302076302E39360A20206279AA
:0E34D800206D776D0A0A5072657373204100F3
:00000001FF
